:100000000C9434000C9451000C9451000C94510049
:100010000C9451000C9451000C9451000C9451001C
:100020000C9451000C9451000C9451000C9451000C
:100030000C9451000C9451000C9451000C945100FC
:100040000C9451000C9451000C9451000C945100EC
:100050000C9451000C9451000C9451000C945100DC
:100060000C9451000C94510011241FBECFEFD8E026
:10007000DEBFCDBF12E0A0E0B1E0EEE3F0E102C0F0
:1000800005900D92A631B107D9F712E0A6E1B2E0D2
:1000900001C01D92A233B107E1F70E944C040C94F9
:1000A0001D080C940000BC018091B9008E7F8093E4
:1000B000B9008091B9008D7F8093B90080ED97E001
:1000C0000E94CE04603130F0862F90E040979595E5
:1000D0008795682F6093B800089584E690E00E94A9
:1000E0005300ECEBF0E080818460808308953C9ABB
:1000F00084EA8093BC00089584E98093BC0008954D
:10010000882329F08091BC008F70806C04C080919E
:10011000BC008F7080688093BC0008958091BB0004
:1001200008958091B90008950BC020E00000000000
:1001300000000000000000002F5F2A35B9F701978A
:10014000009799F708951F93182F81E090E00E947F
:1001500094003C9A1093BB0084E88093BC001F91EC
:1001600008959093C5008093C4001092C00088E168
:100170008093C10086E08093C20088E092E0909373
:100180002F0280932E02089580E684B980E187B91A
:100190008EEF8AB980E388B983E390E00E94B100D2
:1001A00008951F93182F8A3019F48DE00E94D10012
:1001B0008091C00085FFFCCF1093C60080E090E0E6
:1001C0001F910895982F8091C00085FFFCCF9093D8
:1001D000C600089520E030E002C02F5F3F4F8091BD
:1001E000BC0087FF04C02935310544F003C02A351F
:1001F000310599F780E091E00E9434050895DF927F
:10020000EF92FF920F931F93082F3C9A3CEBE32E43
:10021000F12C14EAF70110830E94EA008EEE0E948E
:10022000A3000E94EA00802F0E94A3000E94EA001F
:100230003C9AF70110838FEE0E94A3000E94EA000F
:100240008FEF0E9480000E94EA000BEB10E0F801A3
:10025000D0800E94EA0080E00E9480000E94EA00B4
:10026000F80100810E94EA0084E9F70180839D2D56
:1002700080E010E0082B192BC8011F910F91FF900F
:10028000EF90DF9008950F931F933C9A0CEB10E0D2
:1002900084EAF80180830E94EA008EEE0E94A300A7
:1002A0000E94EA0084EF0E94A3000E94EA0084E317
:1002B0000E94A3000E94EA0084E9F80180838AE09A
:1002C00090E00E94940086EF0E94FF0040E050E022
:1002D000BC01CA011F910F9108950F931F933C9A7F
:1002E0000CEB10E084EAF80180830E94EA008EEEB5
:1002F0000E94A3000E94EA0084EF0E94A3000E94D3
:10030000EA008EE20E94A3000E94EA0084E9F8015C
:1003100080838AE090E00E94940086EF0E94FF00B4
:100320009C01442737FD4095542FB901CA011F9104
:100330000F9108952F923F924F925F926F927F920A
:100340008F929F92AF92BF92CF92DF92EF92FF92E5
:100350000F931F93DF93CF9300D000D000D0CDB781
:10036000DEB74C017E836D830E946D010E946D019A
:100370007B018C010E9443010E9443011B012C015F
:1003800080911E0290911F02A0E0B0E0E81AF90AE5
:100390000A0B1B0B209120023091210240E050E01B
:1003A000C801B7010E94AF047B018C013FE01595A5
:1003B0000795F794E7943A95D1F7609128027091E8
:1003C0002902882777FD8095982F2BE0660F771FED
:1003D000881F991F2A95D1F7209124023091250278
:1003E000442737FD4095542F2E0D3F1D401F511FB0
:1003F0000E94040559016A01AE0CBF1CC01ED11E2B
:1004000088E090E0A0E0B0E0A80EB91ECA1EDB1E96
:10041000D601C50114E0B595A795979587951A95CE
:10042000D1F7F40180839183A283B38388E590EFB1
:10043000AFEFBFEFA80EB91ECA1EDB1EC601B50185
:10044000A60195010E94AF043B014C01ACE09594DC
:10045000879477946794AA95D1F720912A023091D6
:100460002B02442737FD4095542FC601B5010E9449
:10047000AF047B018C01FDE015950795F794E79497
:10048000FA95D1F782E090E0A0E0B0E0E80EF91E26
:100490000A1F1B1F20911C0230911D02442737FDAB
:1004A0004095542FC401B3010E94AF04BC019927A9
:1004B00077FD9095892FE60EF71E081F191F62E041
:1004C00015950795F794E7946A95D1F780E090E841
:1004D000A0E0B0E0E80EF91E0A1F1B1F20912602C3
:1004E0003091270240E050E0C801B7010E94AF04FC
:1004F000DC01CB015FE0B695A795979587955A9556
:10050000D1F789839A83AB83BC83E0901A02F09081
:100510001B020027F7FC0095102F42E0EE0CFF1C99
:10052000001F111F4A95D1F782E090E0A0E0B0E0F3
:10053000E80EF91E0A1F1B1F209122023091230290
:10054000442737FD4095542FC601B5010E94AF04E2
:100550003BE095958795779567953A95D1F7E60EA7
:10056000F71E081F191F2091160230911702442709
:1005700037FD4095542FC401B3010E94AF042BE016
:1005800095958795779567952A95D1F7E60EF71E8D
:10059000081F191FC801B70124E030E040E050E017
:1005A0000E940405221A330A440A550AC201B10105
:1005B00020E533EC40E050E00E94AF0497FD0FC00F
:1005C000660F771F881F991F29813A814B815C81B3
:1005D0000E94E204C901DA015C016D010CC02981AD
:1005E0003A814B815C810E94E20459016A01AA0CA4
:1005F000BB1CCC1CDD1C5527D7FC5A954D2D3C2D22
:100600002B2DCA01B9010E94AF042EED3BE040E062
:1006100050E00E94AF047B018C01C601B50123E4C8
:1006200033EE4FEF5FEF0E94AF04BC01992777FDD7
:100630009095892F6153714F8F4F9F4F78011127EC
:10064000F7FC1095012F6E0D7F1D801F911F44E058
:1006500095958795779567954A95D1F76A0D7B1D96
:100660008C1D9D1DAD81BE816D937D938D939C935B
:10067000139726960FB6F894DEBF0FBECDBFCF916D
:10068000DF911F910F91FF90EF90DF90CF90BF907F
:10069000AF909F908F907F906F905F904F903F9022
:1006A0002F90089583E191E00E9434058DE291E05E
:1006B0000E9434058AEA0E94FF0090931B028093F7
:1006C0001A028CEA0E94FF00909323028093220278
:1006D0008EEA0E94FF0090932B0280932A0280EB07
:1006E0000E94FF00909327028093260282EB0E94D3
:1006F000FF00909321028093200284EB0E94FF0070
:1007000090931F0280931E0286EB0E94FF0090933D
:100710001D0280931C0288EB0E94FF009093170239
:10072000809316028AEB0E94FF0090931902809337
:1007300018028CEB0E94FF009093290280932802FC
:100740008EEB0E94FF00909325028093240200D03C
:1007500000D086E491E0EDB7FEB79283818380916B
:100760001A0290911B02948383830E941F0581E5E6
:1007700091E0EDB7FEB79283818380912202909140
:100780002302948383830E941F058CE591E0EDB7DB
:10079000FEB79283818380912A0290912B029483E9
:1007A00083830E941F0587E691E0EDB7FEB7928331
:1007B00081838091260290912702948383830E94F3
:1007C0001F0582E791E0EDB7FEB7928381838091A8
:1007D000200290912102948383830E941F058DE75C
:1007E00091E0EDB7FEB79283818380911E029091D4
:1007F0001F02948383830E941F0588E891E0EDB770
:10080000FEB79283818380911C0290911D02948394
:1008100083830E941F0582E991E0EDB7FEB79283C2
:1008200081838091160290911702948383830E94A2
:100830001F058CE991E0EDB7FEB79283818380912B
:10084000180290911902948383830E941F0586EAFF
:1008500091E0EDB7FEB79283818380912802909159
:100860002902948383830E941F0580EB91E0EDB7FA
:10087000FEB7928381838091240290912502948314
:1008800083830E941F050F900F900F900F908AEBAB
:1008900091E00E9434050895AF92BF92CF92DF920B
:1008A000EF92FF920F931F93DF93CF93CDB7DEB7F5
:1008B00028970FB6F894DEBF0FBECDBF19821A82FB
:1008C0001B821C821D821E821F8218860E94C40009
:1008D0000E946D0084E690E00E9494000E94520302
:1008E00055E0A52EB12CAC0EBD1E6E010894C11CA6
:1008F000D11C44EDE42E41E0F42E05EF11E0C601D9
:10090000B5010E949A0100D000D000D0EDB7FEB72B
:10091000F282E18289819A81AB81BC818383948355
:10092000A583B6830E941F05EDB7FEB7128301832E
:100930008D819E81AF81B88583839483A583B6839F
:100940000E941F058DB79EB706960FB6F8949EBFFE
:100950000FBE8DBF88EE93E00E949400D0CF629FBF
:10096000D001739FF001829FE00DF11D649FE00DA7
:10097000F11D929FF00D839FF00D749FF00D659F08
:10098000F00D9927729FB00DE11DF91F639FB00D07
:10099000E11DF91FBD01CF0111240895AA1BBB1B46
:1009A00051E107C0AA1FBB1FA617B70710F0A61B6F
:1009B000B70B881F991F5A95A9F780959095BC0190
:1009C000CD010895A1E21A2EAA1BBB1BFD010DC08B
:1009D000AA1FBB1FEE1FFF1FA217B307E407F507EF
:1009E00020F0A21BB30BE40BF50B661F771F881FCB
:1009F000991F1A9469F760957095809590959B0161
:100A0000AC01BD01CF01089597FB092E05260ED03C
:100A100057FD04D0D7DF0AD0001C38F4509540951C
:100A2000309521953F4F4F4F5F4F0895F6F79095C2
:100A30008095709561957F4F8F4F9F4F0895A0E0EF
:100A4000B0E0E5E2F5E00C94F607FE013596619121
:100A5000719180912E0290912F02AF010E94690541
:100A60002096E2E00C9412080F931F93CF93DF932C
:100A70008C01E0912E02F0912F02838181FF21C031
:100A8000C0E0D0E00DC0E0912E02F0912F02208551
:100A90003185BF01F9010995892B11F0CFEFDFEF07
:100AA000F80181918F01882371F7E0912E02F09176
:100AB0002F02208531858AE0BF01F9010995892B34
:100AC00011F0CFEFDFEFCE01DF91CF911F910F91AA
:100AD0000895ABE0B0E0EFE6F5E00C94E6073C01EA
:100AE0002B015A01FC0117821682838181FD03C00C
:100AF0006FEF7FEFC6C19AE0892E1E010894211C7A
:100B0000311CF3012381F20123FD859123FF8191A3
:100B10002F01882309F4B2C1853239F423FD859170
:100B200023FF81912F01853229F490E0B3010E94C7
:100B30005C07E7CF982FFF24EE249924FFE1FF15EF
:100B4000D0F09B3269F09C3228F4903259F0933205
:100B500091F40EC09D3249F0903369F441E024C015
:100B600052E0F52A84E0F82A28C098E0F92A25C046
:100B7000E0E1FE2A22C0F7FC29C0892F80538A3089
:100B800070F4F6FE05C0989C902C1124980E15C0A8
:100B9000E89CE02C1124E80EF0E2FF2A0EC09E3201
:100BA00029F4F6FC6BC140E4F42A07C09C3619F422
:100BB00050E8F52A02C0983649F4F20123FD9591D8
:100BC00023FF91912F01992309F0B8CF892F8554E4
:100BD000833018F08052833038F444E050E0A40EA3
:100BE000B51E5FE359830FC0933631F0933779F028
:100BF000933509F056C020C0F5018081898342E019
:100C000050E0A40EB51E610101E010E012C0F50134
:100C1000C080D180F6FC03C06FEF7FEF02C0692D6A
:100C200070E042E050E0A40EB51EC6010E945107DC
:100C30008C015FE7F52214C0F501C080D180F6FC7D
:100C400003C06FEF7FEF02C0692D70E042E050E01B
:100C5000A40EB51EC6010E9446078C0150E8F52A75
:100C6000F3FE07C01AC080E290E0B3010E945C0767
:100C7000EA948E2D90E008171907A8F30EC0F6012C
:100C8000F7FC8591F7FE81916F0190E0B3010E941E
:100C90005C07E110EA94015010400115110579F745
:100CA000EAC0943611F0993669F5F7FE08C0F501EF
:100CB000208131814281538184E090E00AC0F501B6
:100CC000808191819C01442737FD4095542F82E01B
:100CD00090E0A80EB91E9FE6F92257FF09C0509573
:100CE0004095309521953F4F4F4F5F4FE0E8FE2AEA
:100CF000CA01B901A1012AE030E00E948807D82E7C
:100D0000D21840C0953729F41F2D1F7E2AE030E00D
:100D10001DC01F2D197F9F3661F0903720F4983544
:100D200009F0ACC00FC0903739F0983709F0A6C071
:100D300004C028E030E00AC0106114FD146020E116
:100D400030E004C014FD166020E132E017FF08C057
:100D5000F501608171818281938144E050E008C097
:100D6000F50180819181BC0180E090E042E050E09B
:100D7000A40EB51EA1010E948807D82ED2188FE7B5
:100D8000F82EF122F6FE0BC05EEFF522D91438F4EE
:100D9000F4FE07C0F2FC05C08FEEF82202C01D2D44
:100DA00001C0192DF4FE0DC0FE01ED0DF11D808175
:100DB000803319F499EEF92208C01F5FF2FE05C0D6
:100DC00003C08F2D867809F01F5F0F2DF3FC14C030
:100DD000F0FE0FC01E1510F09D2C0BC09D2C9E0C1C
:100DE000911A1E2D06C080E290E0B3010E945C07BC
:100DF0001F5F1E15C0F304C01E1510F4E11A01C0D8
:100E0000EE2404FF0FC080E390E0B3010E945C0772
:100E100002FF1DC001FD03C088E790E00EC088E519
:100E200090E00BC0802F867891F001FF02C08BE22A
:100E300001C080E2F7FC8DE290E0B3010E945C0704
:100E400006C080E390E0B3010E945C079A94D91435
:100E5000C0F3DA94F101ED0DF11D808190E0B30152
:100E60000E945C07DD20A9F706C080E290E0B30194
:100E70000E945C07EA94EE20C1F743CEF30166813D
:100E80007781CB012B96E2E10C940208FC010590DE
:100E9000615070400110D8F7809590958E0F9F1F7C
:100EA0000895FC016150704001900110D8F78095C1
:100EB00090958E0F9F1F08950F931F93CF93DF93ED
:100EC0008C01EB018B8181FF1BC082FF0DC02E8145
:100ED0003F818C819D812817390764F4E881F9816D
:100EE0000193F983E88306C0E885F985802F099589
:100EF000892B31F48E819F8101969F838E8302C05E
:100F00000FEF1FEFC801DF91CF911F910F9108954F
:100F1000FA01AA27283051F1203181F1E8946F932A
:100F20006E7F6E5F7F4F8F4F9F4FAF4FB1E03ED0D0
:100F3000B4E03CD0670F781F891F9A1FA11D680F6E
:100F4000791F8A1F911DA11D6A0F711D811D911DA1
:100F5000A11D20D009F468943F912AE0269F112416
:100F60003019305D3193DEF6CF010895462F47707A
:100F7000405D4193B3E00FD0C9F7F6CF462F4F70D5
:100F8000405D4A3318F0495D31FD4052419302D033
:100F9000A9F7EACFB4E0A6959795879577956795D9
:100FA000BA95C9F700976105710508959B01AC01D9
:100FB0000A2E06945795479537952795BA95C9F700
:100FC000620F731F841F951FA01D08952F923F92DB
:100FD0004F925F926F927F928F929F92AF92BF9249
:100FE000CF92DF92EF92FF920F931F93CF93DF93F5
:100FF000CDB7DEB7CA1BDB0B0FB6F894DEBF0FBE52
:10100000CDBF09942A88398848885F846E847D849E
:101010008C849B84AA84B984C884DF80EE80FD80A0
:101020000C811B81AA81B981CE0FD11D0FB6F89416
:0E103000DEBF0FBECDBFED010895F894FFCFD7
:10103E00636F6D706C6574652074696D6564206F87
:10104E007574000A43616C6962726174696F6E2017
:10105E00496E666F726D6174696F6E3A002D2D2D3B
:10106E002D2D2D2D2D2D2D2D2D2D2D2D2D2D2D2DA2
:10107E002D2D2D2D2D0009414331203D2025640AB3
:10108E000009414332203D2025640A0009414333C3
:10109E00203D2025640A0009414334203D2025646B
:1010AE000A0009414335203D2025640A00094143C9
:1010BE0036203D2025640A00094231203D2025645A
:1010CE000A00094232203D2025640A00094D4220C3
:1010DE003D2025640A00094D43203D2025640A0069
:1010EE00094D44203D2025640A002D2D2D2D2D2D3A
:1010FE002D2D2D2D2D2D2D2D2D2D2D2D2D2D2D2D12
:10110E002D2D0A0054656D70657261747572653AA5
:10111E0020256C642028696E20302E31206465678E
:10112E002043290A0050726573737572653A202543
:10113E006C642050610A0A000000000200000000EA
:06114E00D10000000000CA
:00000001FF
